{
  "address": "0xA58149E1e44220bD762faf9AD4209Eb2b2a062C7",
  "abi": [
    {
      "anonymous": false,
      "inputs": [
        {
          "indexed": false,
          "internalType": "address",
          "name": "sender",
          "type": "address"
        },
        {
          "indexed": false,
          "internalType": "address",
          "name": "oldAdmin",
          "type": "address"
        },
        {
          "indexed": false,
          "internalType": "address",
          "name": "admin",
          "type": "address"
        }
      ],
      "name": "AdminUpdated",
      "type": "event"
    },
    {
      "anonymous": false,
      "inputs": [
        {
          "indexed": false,
          "internalType": "address",
          "name": "account",
          "type": "address"
        }
      ],
      "name": "Paused",
      "type": "event"
    },
    {
      "anonymous": false,
      "inputs": [
        {
          "indexed": false,
          "internalType": "address",
          "name": "sender",
          "type": "address"
        },
        {
          "indexed": false,
          "internalType": "address",
          "name": "oldPauser",
          "type": "address"
        },
        {
          "indexed": false,
          "internalType": "address",
          "name": "pauser",
          "type": "address"
        }
      ],
      "name": "PauserUpdated",
      "type": "event"
    },
    {
      "anonymous": false,
      "inputs": [
        {
          "indexed": false,
          "internalType": "address",
          "name": "account",
          "type": "address"
        }
      ],
      "name": "Unpaused",
      "type": "event"
    },
    {
      "anonymous": false,
      "inputs": [
        {
          "indexed": false,
          "internalType": "uint16",
          "name": "callerChainId",
          "type": "uint16"
        },
        {
          "indexed": false,
          "internalType": "uint16",
          "name": "executionChainId",
          "type": "uint16"
        },
        {
          "indexed": false,
          "internalType": "string",
          "name": "executionContract",
          "type": "string"
        },
        {
          "indexed": false,
          "internalType": "string",
          "name": "functionName",
          "type": "string"
        },
        {
          "indexed": false,
          "internalType": "string[]",
          "name": "args",
          "type": "string[]"
        },
        {
          "indexed": false,
          "internalType": "uint256",
          "name": "nonce",
          "type": "uint256"
        }
      ],
      "name": "WavesCallEvent",
      "type": "event"
    },
    {
      "inputs": [],
      "name": "admin",
      "outputs": [
        {
          "internalType": "address",
          "name": "",
          "type": "address"
        }
      ],
      "stateMutability": "view",
      "type": "function"
    },
    {
      "inputs": [
        {
          "internalType": "address",
          "name": "caller_",
          "type": "address"
        }
      ],
      "name": "allow",
      "outputs": [],
      "stateMutability": "nonpayable",
      "type": "function"
    },
    {
      "inputs": [
        {
          "internalType": "address",
          "name": "",
          "type": "address"
        }
      ],
      "name": "allowance",
      "outputs": [
        {
          "internalType": "bool",
          "name": "",
          "type": "bool"
        }
      ],
      "stateMutability": "view",
      "type": "function"
    },
    {
      "inputs": [
        {
          "internalType": "uint16",
          "name": "executionChainId_",
          "type": "uint16"
        },
        {
          "internalType": "string",
          "name": "executionContract_",
          "type": "string"
        },
        {
          "internalType": "string",
          "name": "functionName_",
          "type": "string"
        },
        {
          "internalType": "string[]",
          "name": "functionArgs_",
          "type": "string[]"
        }
      ],
      "name": "call",
      "outputs": [],
      "stateMutability": "nonpayable",
      "type": "function"
    },
    {
      "inputs": [],
      "name": "chainId",
      "outputs": [
        {
          "internalType": "uint16",
          "name": "",
          "type": "uint16"
        }
      ],
      "stateMutability": "view",
      "type": "function"
    },
    {
      "inputs": [
        {
          "internalType": "address",
          "name": "caller_",
          "type": "address"
        }
      ],
      "name": "disallow",
      "outputs": [],
      "stateMutability": "nonpayable",
      "type": "function"
    },
    {
      "inputs": [
        {
          "internalType": "address",
          "name": "admin_",
          "type": "address"
        },
        {
          "internalType": "uint16",
          "name": "chainId_",
          "type": "uint16"
        }
      ],
      "name": "init",
      "outputs": [],
      "stateMutability": "nonpayable",
      "type": "function"
    },
    {
      "inputs": [],
      "name": "isPaused",
      "outputs": [
        {
          "internalType": "bool",
          "name": "",
          "type": "bool"
        }
      ],
      "stateMutability": "view",
      "type": "function"
    },
    {
      "inputs": [],
      "name": "nonce",
      "outputs": [
        {
          "internalType": "uint256",
          "name": "",
          "type": "uint256"
        }
      ],
      "stateMutability": "view",
      "type": "function"
    },
    {
      "inputs": [],
      "name": "pause",
      "outputs": [],
      "stateMutability": "nonpayable",
      "type": "function"
    },
    {
      "inputs": [],
      "name": "pauser",
      "outputs": [
        {
          "internalType": "address",
          "name": "",
          "type": "address"
        }
      ],
      "stateMutability": "view",
      "type": "function"
    },
    {
      "inputs": [],
      "name": "unpause",
      "outputs": [],
      "stateMutability": "nonpayable",
      "type": "function"
    },
    {
      "inputs": [
        {
          "internalType": "address",
          "name": "admin_",
          "type": "address"
        }
      ],
      "name": "updateAdmin",
      "outputs": [],
      "stateMutability": "nonpayable",
      "type": "function"
    },
    {
      "inputs": [
        {
          "internalType": "address",
          "name": "pauser_",
          "type": "address"
        }
      ],
      "name": "updatePauser",
      "outputs": [],
      "stateMutability": "nonpayable",
      "type": "function"
    }
  ],
  "transactionHash": "0x2b7a587d2d2ac3f20df116e0f94e0fc88a28731ed8c36453afc7e9107480869b",
  "args": [],
  "numDeployments": 1,
  "solcInputHash": "c05f4e10db47221350707cddb2915edf",
  "bytecode": "0x608060405234801561001057600080fd5b506002805461ff00191690556115ac8061002b6000396000f3fe608060405234801561001057600080fd5b50600436106100ea5760003560e01c8063affed0e01161008c578063e2f273bd11610066578063e2f273bd14610221578063f851a44014610234578063fd538f4f14610254578063ff9913e81461026757600080fd5b8063affed0e0146101e5578063b187bd26146101fc578063d2fd155e1461020e57600080fd5b80638456cb59116100c85780638456cb59146101445780639a8a05921461014c5780639fd0506d14610187578063a9ed9cb8146101d257600080fd5b80633e5beab9146100ef5780633f4ba83a14610127578063554bab3c14610131575b600080fd5b6101126100fd366004611078565b60016020526000908152604090205460ff1681565b60405190151581526020015b60405180910390f35b61012f61027a565b005b61012f61013f366004611078565b6103d5565b61012f61057f565b60025461017490760100000000000000000000000000000000000000000000900461ffff1681565b60405161ffff909116815260200161011e565b6002546101ad9062010000900473ffffffffffffffffffffffffffffffffffffffff1681565b60405173ffffffffffffffffffffffffffffffffffffffff909116815260200161011e565b61012f6101e0366004611078565b6106d4565b6101ee60035481565b60405190815260200161011e565b60025461011290610100900460ff1681565b61012f61021c3660046110a5565b6107a1565b61012f61022f366004611078565b61096f565b6000546101ad9073ffffffffffffffffffffffffffffffffffffffff1681565b61012f61026236600461119f565b610b0d565b61012f610275366004611078565b610d13565b600254610100900460ff166102f0576040517f08c379a000000000000000000000000000000000000000000000000000000000815260206004820152600a60248201527f6e6f74207061757365640000000000000000000000000000000000000000000060448201526064015b60405180910390fd5b60025462010000900473ffffffffffffffffffffffffffffffffffffffff163314610377576040517f08c379a000000000000000000000000000000000000000000000000000000000815260206004820152600b60248201527f6f6e6c792070617573657200000000000000000000000000000000000000000060448201526064016102e7565b600280547fffffffffffffffffffffffffffffffffffffffffffffffffffffffffffff00ff1690556040513381527f5db9ee0a495bf2e6ff9c91a7834c1ba4fdd244a5e8aa4e537bd38aeae4b073aa906020015b60405180910390a1565b60005473ffffffffffffffffffffffffffffffffffffffff163314610456576040517f08c379a000000000000000000000000000000000000000000000000000000000815260206004820152600a60248201527f6f6e6c792061646d696e0000000000000000000000000000000000000000000060448201526064016102e7565b73ffffffffffffffffffffffffffffffffffffffff81166104d3576040517f08c379a000000000000000000000000000000000000000000000000000000000815260206004820152600c60248201527f7a65726f2061646472657373000000000000000000000000000000000000000060448201526064016102e7565b6002546040805133815273ffffffffffffffffffffffffffffffffffffffff620100009093048316602082015291831682820152517f9b3d82621a55ae56941a49b01b3111acf42e49f89b2af1a6dea8fb9886d3520c9181900360600190a16002805473ffffffffffffffffffffffffffffffffffffffff90921662010000027fffffffffffffffffffff0000000000000000000000000000000000000000ffff909216919091179055565b600254610100900460ff16156105f1576040517f08c379a000000000000000000000000000000000000000000000000000000000815260206004820152600660248201527f706175736564000000000000000000000000000000000000000000000000000060448201526064016102e7565b60025462010000900473ffffffffffffffffffffffffffffffffffffffff163314610678576040517f08c379a000000000000000000000000000000000000000000000000000000000815260206004820152600b60248201527f6f6e6c792070617573657200000000000000000000000000000000000000000060448201526064016102e7565b600280547fffffffffffffffffffffffffffffffffffffffffffffffffffffffffffff00ff166101001790556040513381527f62e78cea01bee320cd4e420270b5ea74000d11b0c9f74754ebdbfc544b05a258906020016103cb565b60005473ffffffffffffffffffffffffffffffffffffffff163314610755576040517f08c379a000000000000000000000000000000000000000000000000000000000815260206004820152600a60248201527f6f6e6c792061646d696e0000000000000000000000000000000000000000000060448201526064016102e7565b73ffffffffffffffffffffffffffffffffffffffff16600090815260016020526040902080547fffffffffffffffffffffffffffffffffffffffffffffffffffffffffffffff00169055565b60025460ff161561080e576040517f08c379a000000000000000000000000000000000000000000000000000000000815260206004820152601360248201527f616c726561647920696e697469616c697a65640000000000000000000000000060448201526064016102e7565b73ffffffffffffffffffffffffffffffffffffffff821661088b576040517f08c379a000000000000000000000000000000000000000000000000000000000815260206004820152600c60248201527f7a65726f2061646472657373000000000000000000000000000000000000000060448201526064016102e7565b600080547fffffffffffffffffffffffff00000000000000000000000000000000000000001673ffffffffffffffffffffffffffffffffffffffff939093169283179055600280547fffffffffffffffff00000000000000000000000000000000000000000000ffff16620100009093027fffffffffffffffff0000ffffffffffffffffffffffffffffffffffffffffffff169290921776010000000000000000000000000000000000000000000061ffff9290921691909102177fffffffffffffffffffffffffffffffffffffffffffffffffffffffffffffff00166001179055565b60005473ffffffffffffffffffffffffffffffffffffffff1633146109f0576040517f08c379a000000000000000000000000000000000000000000000000000000000815260206004820152600a60248201527f6f6e6c792061646d696e0000000000000000000000000000000000000000000060448201526064016102e7565b73ffffffffffffffffffffffffffffffffffffffff8116610a6d576040517f08c379a000000000000000000000000000000000000000000000000000000000815260206004820152600c60248201527f7a65726f2061646472657373000000000000000000000000000000000000000060448201526064016102e7565b6000546040805133815273ffffffffffffffffffffffffffffffffffffffff928316602082015291831682820152517f9f6130d220a6021d90d78c7ed17b7cfb79f530974405b174fef75f671205513c9181900360600190a1600080547fffffffffffffffffffffffff00000000000000000000000000000000000000001673ffffffffffffffffffffffffffffffffffffffff92909216919091179055565b60025460ff16610b79576040517f08c379a000000000000000000000000000000000000000000000000000000000815260206004820152600f60248201527f6e6f7420696e697469616c697a6564000000000000000000000000000000000060448201526064016102e7565b3360008181526001602052604090205460ff16610bf2576040517f08c379a000000000000000000000000000000000000000000000000000000000815260206004820152600b60248201527f6e6f7420616c6c6f77656400000000000000000000000000000000000000000060448201526064016102e7565b600254610100900460ff1615610c64576040517f08c379a000000000000000000000000000000000000000000000000000000000815260206004820152600660248201527f706175736564000000000000000000000000000000000000000000000000000060448201526064016102e7565b6000610c6f33610de6565b90508083600081518110610c8557610c8561134c565b60209081029190910101526003546002546040517f4ec312495d4ad8f79a03f2560a298f5debcb2b0b78bc3aeff13ce8731ae02a8c91610cf29176010000000000000000000000000000000000000000000090910461ffff16908c908c908c908c908c908c908a906113c4565b60405180910390a1610d058160016114ec565b600355505050505050505050565b60005473ffffffffffffffffffffffffffffffffffffffff163314610d94576040517f08c379a000000000000000000000000000000000000000000000000000000000815260206004820152600a60248201527f6f6e6c792061646d696e0000000000000000000000000000000000000000000060448201526064016102e7565b73ffffffffffffffffffffffffffffffffffffffff16600090815260016020819052604090912080547fffffffffffffffffffffffffffffffffffffffffffffffffffffffffffffff00169091179055565b606073ffffffffffffffffffffffffffffffffffffffff82166000610e0d60146002611505565b610e18906002611528565b60ff1667ffffffffffffffff811115610e3357610e33611121565b6040519080825280601f01601f191660200182016040528015610e5d576020820181803683370190505b5090507f300000000000000000000000000000000000000000000000000000000000000081600081518110610e9457610e9461134c565b60200101907effffffffffffffffffffffffffffffffffffffffffffffffffffffffffffff1916908160001a9053507f780000000000000000000000000000000000000000000000000000000000000081600181518110610ef757610ef761134c565b60200101907effffffffffffffffffffffffffffffffffffffffffffffffffffffffffffff1916908160001a9053506000610f3460146002611505565b610f3f906001611528565b60ff1690505b6001811115610fdf577f303132333435363738396162636465660000000000000000000000000000000083600f1660108110610f8357610f8361134c565b1a60f81b828281518110610f9957610f9961134c565b60200101907effffffffffffffffffffffffffffffffffffffffffffffffffffffffffffff1916908160001a90535060049290921c91610fd881611541565b9050610f45565b508115611048576040517f08c379a000000000000000000000000000000000000000000000000000000000815260206004820152601360248201527f6c656e67746820696e73756666696369656e740000000000000000000000000060448201526064016102e7565b9392505050565b803573ffffffffffffffffffffffffffffffffffffffff8116811461107357600080fd5b919050565b60006020828403121561108a57600080fd5b6110488261104f565b803561ffff8116811461107357600080fd5b600080604083850312156110b857600080fd5b6110c18361104f565b91506110cf60208401611093565b90509250929050565b60008083601f8401126110ea57600080fd5b50813567ffffffffffffffff81111561110257600080fd5b60208301915083602082850101111561111a57600080fd5b9250929050565b7f4e487b7100000000000000000000000000000000000000000000000000000000600052604160045260246000fd5b604051601f82017fffffffffffffffffffffffffffffffffffffffffffffffffffffffffffffffe016810167ffffffffffffffff8111828210171561119757611197611121565b604052919050565b600080600080600080608087890312156111b857600080fd5b6111c187611093565b955067ffffffffffffffff80602089013511156111dd57600080fd5b6111ed8960208a01358a016110d8565b9096509450604088013581101561120357600080fd5b6112138960408a01358a016110d8565b9094509250606088013581101561122957600080fd5b6060880135880189601f82011261123f57600080fd5b818135111561125057611250611121565b6112606020823560051b01611150565b81358082526020808301929160051b8401018c101561127e57600080fd5b602083015b6020843560051b85010181101561133a5784813511156112a257600080fd5b803584018d603f8201126112b557600080fd5b6020810135868111156112ca576112ca611121565b6112fb60207fffffffffffffffffffffffffffffffffffffffffffffffffffffffffffffffe0601f84011601611150565b8181528f604083850101111561131057600080fd5b81604084016020830137600060208383010152808652505050602083019250602081019050611283565b50809450505050509295509295509295565b7f4e487b7100000000000000000000000000000000000000000000000000000000600052603260045260246000fd5b8183528181602085013750600060208284010152600060207fffffffffffffffffffffffffffffffffffffffffffffffffffffffffffffffe0601f840116840101905092915050565b600061ffff808b1683526020818b168185015260c060408501526113ec60c085018a8c61137b565b9150838203606085015261140182888a61137b565b915083820360808501528186518084528284019150828160051b8501018389016000805b8481101561149f577fffffffffffffffffffffffffffffffffffffffffffffffffffffffffffffffe08089860301875283518051808752845b81811015611479578281018b01518882018c01528a0161145e565b508681018a0185905297890197601f019091169094018701935091860191600101611425565b50505080955050505050508260a08301529998505050505050505050565b7f4e487b7100000000000000000000000000000000000000000000000000000000600052601160045260246000fd5b808201808211156114ff576114ff6114bd565b92915050565b60ff8181168382160290811690818114611521576115216114bd565b5092915050565b60ff81811683821601908111156114ff576114ff6114bd565b600081611550576115506114bd565b507fffffffffffffffffffffffffffffffffffffffffffffffffffffffffffffffff019056fea26469706673582212207585c271fd0014876cc7124c15bdc05e1dc5a6b35b89fe7874716731b3dcffe964736f6c63430008120033",
  "devdoc": {
    "kind": "dev",
    "methods": {},
    "version": 1
  },
  "userdoc": {
    "kind": "user",
    "methods": {},
    "version": 1
  },
  "storageLayout": {
    "storage": [
      {
        "astId": 27,
        "contract": "contracts/WavesCaller.sol:WavesCaller",
        "label": "admin",
        "offset": 0,
        "slot": "0",
        "type": "t_address"
      },
      {
        "astId": 78,
        "contract": "contracts/WavesCaller.sol:WavesCaller",
        "label": "allowance",
        "offset": 0,
        "slot": "1",
        "type": "t_mapping(t_address,t_bool)"
      },
      {
        "astId": 477,
        "contract": "contracts/WavesCaller.sol:WavesCaller",
        "label": "isInited",
        "offset": 0,
        "slot": "2",
        "type": "t_bool"
      },
      {
        "astId": 1303,
        "contract": "contracts/WavesCaller.sol:WavesCaller",
        "label": "isPaused",
        "offset": 1,
        "slot": "2",
        "type": "t_bool"
      },
      {
        "astId": 1305,
        "contract": "contracts/WavesCaller.sol:WavesCaller",
        "label": "pauser",
        "offset": 2,
        "slot": "2",
        "type": "t_address"
      },
      {
        "astId": 12,
        "contract": "contracts/WavesCaller.sol:WavesCaller",
        "label": "chainId",
        "offset": 22,
        "slot": "2",
        "type": "t_uint16"
      },
      {
        "astId": 14,
        "contract": "contracts/WavesCaller.sol:WavesCaller",
        "label": "nonce",
        "offset": 0,
        "slot": "3",
        "type": "t_uint256"
      }
    ],
    "types": {
      "t_address": {
        "encoding": "inplace",
        "label": "address",
        "numberOfBytes": "20"
      },
      "t_bool": {
        "encoding": "inplace",
        "label": "bool",
        "numberOfBytes": "1"
      },
      "t_mapping(t_address,t_bool)": {
        "encoding": "mapping",
        "key": "t_address",
        "label": "mapping(address => bool)",
        "numberOfBytes": "32",
        "value": "t_bool"
      },
      "t_uint16": {
        "encoding": "inplace",
        "label": "uint16",
        "numberOfBytes": "2"
      },
      "t_uint256": {
        "encoding": "inplace",
        "label": "uint256",
        "numberOfBytes": "32"
      }
    }
  }
}