{
  "address": "0xFC35736F070C84bc18aE84758Ac30036A9063b4B",
  "abi": [
    {
      "anonymous": false,
      "inputs": [
        {
          "indexed": false,
          "internalType": "address",
          "name": "sender",
          "type": "address"
        },
        {
          "indexed": false,
          "internalType": "address",
          "name": "oldAdmin",
          "type": "address"
        },
        {
          "indexed": false,
          "internalType": "address",
          "name": "admin",
          "type": "address"
        }
      ],
      "name": "AdminUpdated",
      "type": "event"
    },
    {
      "anonymous": false,
      "inputs": [
        {
          "indexed": false,
          "internalType": "address",
          "name": "account",
          "type": "address"
        }
      ],
      "name": "Paused",
      "type": "event"
    },
    {
      "anonymous": false,
      "inputs": [
        {
          "indexed": false,
          "internalType": "address",
          "name": "sender",
          "type": "address"
        },
        {
          "indexed": false,
          "internalType": "address",
          "name": "oldPauser",
          "type": "address"
        },
        {
          "indexed": false,
          "internalType": "address",
          "name": "pauser",
          "type": "address"
        }
      ],
      "name": "PauserUpdated",
      "type": "event"
    },
    {
      "anonymous": false,
      "inputs": [
        {
          "indexed": false,
          "internalType": "address",
          "name": "account",
          "type": "address"
        }
      ],
      "name": "Unpaused",
      "type": "event"
    },
    {
      "anonymous": false,
      "inputs": [
        {
          "indexed": false,
          "internalType": "uint16",
          "name": "callerChainId",
          "type": "uint16"
        },
        {
          "indexed": false,
          "internalType": "uint16",
          "name": "executionChainId",
          "type": "uint16"
        },
        {
          "indexed": false,
          "internalType": "address",
          "name": "caller",
          "type": "address"
        },
        {
          "indexed": false,
          "internalType": "string",
          "name": "executionContract",
          "type": "string"
        },
        {
          "indexed": false,
          "internalType": "string",
          "name": "functionName",
          "type": "string"
        },
        {
          "indexed": false,
          "internalType": "string[]",
          "name": "args",
          "type": "string[]"
        },
        {
          "indexed": false,
          "internalType": "uint256",
          "name": "nonce",
          "type": "uint256"
        }
      ],
      "name": "WavesCallEvent",
      "type": "event"
    },
    {
      "inputs": [],
      "name": "admin",
      "outputs": [
        {
          "internalType": "address",
          "name": "",
          "type": "address"
        }
      ],
      "stateMutability": "view",
      "type": "function"
    },
    {
      "inputs": [
        {
          "internalType": "address",
          "name": "caller_",
          "type": "address"
        }
      ],
      "name": "allow",
      "outputs": [],
      "stateMutability": "nonpayable",
      "type": "function"
    },
    {
      "inputs": [
        {
          "internalType": "address",
          "name": "",
          "type": "address"
        }
      ],
      "name": "allowance",
      "outputs": [
        {
          "internalType": "bool",
          "name": "",
          "type": "bool"
        }
      ],
      "stateMutability": "view",
      "type": "function"
    },
    {
      "inputs": [
        {
          "internalType": "uint16",
          "name": "executionChainId_",
          "type": "uint16"
        },
        {
          "internalType": "string",
          "name": "executionContract_",
          "type": "string"
        },
        {
          "internalType": "string",
          "name": "functionName_",
          "type": "string"
        },
        {
          "internalType": "string[]",
          "name": "args_",
          "type": "string[]"
        }
      ],
      "name": "call",
      "outputs": [],
      "stateMutability": "nonpayable",
      "type": "function"
    },
    {
      "inputs": [],
      "name": "chainId",
      "outputs": [
        {
          "internalType": "uint16",
          "name": "",
          "type": "uint16"
        }
      ],
      "stateMutability": "view",
      "type": "function"
    },
    {
      "inputs": [
        {
          "internalType": "address",
          "name": "caller_",
          "type": "address"
        }
      ],
      "name": "disallow",
      "outputs": [],
      "stateMutability": "nonpayable",
      "type": "function"
    },
    {
      "inputs": [
        {
          "internalType": "address",
          "name": "admin_",
          "type": "address"
        },
        {
          "internalType": "uint16",
          "name": "chainId_",
          "type": "uint16"
        }
      ],
      "name": "init",
      "outputs": [],
      "stateMutability": "nonpayable",
      "type": "function"
    },
    {
      "inputs": [],
      "name": "isPaused",
      "outputs": [
        {
          "internalType": "bool",
          "name": "",
          "type": "bool"
        }
      ],
      "stateMutability": "view",
      "type": "function"
    },
    {
      "inputs": [],
      "name": "nonce",
      "outputs": [
        {
          "internalType": "uint256",
          "name": "",
          "type": "uint256"
        }
      ],
      "stateMutability": "view",
      "type": "function"
    },
    {
      "inputs": [],
      "name": "pause",
      "outputs": [],
      "stateMutability": "nonpayable",
      "type": "function"
    },
    {
      "inputs": [],
      "name": "pauser",
      "outputs": [
        {
          "internalType": "address",
          "name": "",
          "type": "address"
        }
      ],
      "stateMutability": "view",
      "type": "function"
    },
    {
      "inputs": [],
      "name": "unpause",
      "outputs": [],
      "stateMutability": "nonpayable",
      "type": "function"
    },
    {
      "inputs": [
        {
          "internalType": "address",
          "name": "admin_",
          "type": "address"
        }
      ],
      "name": "updateAdmin",
      "outputs": [],
      "stateMutability": "nonpayable",
      "type": "function"
    },
    {
      "inputs": [
        {
          "internalType": "address",
          "name": "pauser_",
          "type": "address"
        }
      ],
      "name": "updatePauser",
      "outputs": [],
      "stateMutability": "nonpayable",
      "type": "function"
    }
  ],
  "transactionHash": "0x649b80c99964d8e07c59357a763b581004a4d4c7d5996a4c57db647dc5b857f4",
  "args": [],
  "numDeployments": 1,
  "solcInputHash": "8f3e077cdfb27fe17200647e499dbf1d",
  "bytecode": "0x608060405234801561001057600080fd5b506002805461ff00191690556111828061002b6000396000f3fe608060405234801561001057600080fd5b50600436106100ea5760003560e01c8063affed0e01161008c578063e2f273bd11610066578063e2f273bd14610221578063f851a44014610234578063fd538f4f14610254578063ff9913e81461026757600080fd5b8063affed0e0146101e5578063b187bd26146101fc578063d2fd155e1461020e57600080fd5b80638456cb59116100c85780638456cb59146101445780639a8a05921461014c5780639fd0506d14610187578063a9ed9cb8146101d257600080fd5b80633e5beab9146100ef5780633f4ba83a14610127578063554bab3c14610131575b600080fd5b6101126100fd366004610dda565b60016020526000908152604090205460ff1681565b60405190151581526020015b60405180910390f35b61012f61027a565b005b61012f61013f366004610dda565b6103d5565b61012f61057f565b60025461017490760100000000000000000000000000000000000000000000900461ffff1681565b60405161ffff909116815260200161011e565b6002546101ad9062010000900473ffffffffffffffffffffffffffffffffffffffff1681565b60405173ffffffffffffffffffffffffffffffffffffffff909116815260200161011e565b61012f6101e0366004610dda565b6106d4565b6101ee60035481565b60405190815260200161011e565b60025461011290610100900460ff1681565b61012f61021c366004610e0e565b6107a1565b61012f61022f366004610dda565b61096f565b6000546101ad9073ffffffffffffffffffffffffffffffffffffffff1681565b61012f610262366004610e8a565b610b0d565b61012f610275366004610dda565b610cde565b600254610100900460ff166102f0576040517f08c379a000000000000000000000000000000000000000000000000000000000815260206004820152600a60248201527f6e6f74207061757365640000000000000000000000000000000000000000000060448201526064015b60405180910390fd5b60025462010000900473ffffffffffffffffffffffffffffffffffffffff163314610377576040517f08c379a000000000000000000000000000000000000000000000000000000000815260206004820152600b60248201527f6f6e6c792070617573657200000000000000000000000000000000000000000060448201526064016102e7565b600280547fffffffffffffffffffffffffffffffffffffffffffffffffffffffffffff00ff1690556040513381527f5db9ee0a495bf2e6ff9c91a7834c1ba4fdd244a5e8aa4e537bd38aeae4b073aa906020015b60405180910390a1565b60005473ffffffffffffffffffffffffffffffffffffffff163314610456576040517f08c379a000000000000000000000000000000000000000000000000000000000815260206004820152600a60248201527f6f6e6c792061646d696e0000000000000000000000000000000000000000000060448201526064016102e7565b73ffffffffffffffffffffffffffffffffffffffff81166104d3576040517f08c379a000000000000000000000000000000000000000000000000000000000815260206004820152600c60248201527f7a65726f2061646472657373000000000000000000000000000000000000000060448201526064016102e7565b6002546040805133815273ffffffffffffffffffffffffffffffffffffffff620100009093048316602082015291831682820152517f9b3d82621a55ae56941a49b01b3111acf42e49f89b2af1a6dea8fb9886d3520c9181900360600190a16002805473ffffffffffffffffffffffffffffffffffffffff90921662010000027fffffffffffffffffffff0000000000000000000000000000000000000000ffff909216919091179055565b600254610100900460ff16156105f1576040517f08c379a000000000000000000000000000000000000000000000000000000000815260206004820152600660248201527f706175736564000000000000000000000000000000000000000000000000000060448201526064016102e7565b60025462010000900473ffffffffffffffffffffffffffffffffffffffff163314610678576040517f08c379a000000000000000000000000000000000000000000000000000000000815260206004820152600b60248201527f6f6e6c792070617573657200000000000000000000000000000000000000000060448201526064016102e7565b600280547fffffffffffffffffffffffffffffffffffffffffffffffffffffffffffff00ff166101001790556040513381527f62e78cea01bee320cd4e420270b5ea74000d11b0c9f74754ebdbfc544b05a258906020016103cb565b60005473ffffffffffffffffffffffffffffffffffffffff163314610755576040517f08c379a000000000000000000000000000000000000000000000000000000000815260206004820152600a60248201527f6f6e6c792061646d696e0000000000000000000000000000000000000000000060448201526064016102e7565b73ffffffffffffffffffffffffffffffffffffffff16600090815260016020526040902080547fffffffffffffffffffffffffffffffffffffffffffffffffffffffffffffff00169055565b60025460ff161561080e576040517f08c379a000000000000000000000000000000000000000000000000000000000815260206004820152601360248201527f616c726561647920696e697469616c697a65640000000000000000000000000060448201526064016102e7565b73ffffffffffffffffffffffffffffffffffffffff821661088b576040517f08c379a000000000000000000000000000000000000000000000000000000000815260206004820152600c60248201527f7a65726f2061646472657373000000000000000000000000000000000000000060448201526064016102e7565b600080547fffffffffffffffffffffffff00000000000000000000000000000000000000001673ffffffffffffffffffffffffffffffffffffffff939093169283179055600280547fffffffffffffffff00000000000000000000000000000000000000000000ffff16620100009093027fffffffffffffffff0000ffffffffffffffffffffffffffffffffffffffffffff169290921776010000000000000000000000000000000000000000000061ffff9290921691909102177fffffffffffffffffffffffffffffffffffffffffffffffffffffffffffffff00166001179055565b60005473ffffffffffffffffffffffffffffffffffffffff1633146109f0576040517f08c379a000000000000000000000000000000000000000000000000000000000815260206004820152600a60248201527f6f6e6c792061646d696e0000000000000000000000000000000000000000000060448201526064016102e7565b73ffffffffffffffffffffffffffffffffffffffff8116610a6d576040517f08c379a000000000000000000000000000000000000000000000000000000000815260206004820152600c60248201527f7a65726f2061646472657373000000000000000000000000000000000000000060448201526064016102e7565b6000546040805133815273ffffffffffffffffffffffffffffffffffffffff928316602082015291831682820152517f9f6130d220a6021d90d78c7ed17b7cfb79f530974405b174fef75f671205513c9181900360600190a1600080547fffffffffffffffffffffffff00000000000000000000000000000000000000001673ffffffffffffffffffffffffffffffffffffffff92909216919091179055565b60025460ff16610b79576040517f08c379a000000000000000000000000000000000000000000000000000000000815260206004820152600f60248201527f6e6f7420696e697469616c697a6564000000000000000000000000000000000060448201526064016102e7565b3360008181526001602052604090205460ff16610bf2576040517f08c379a000000000000000000000000000000000000000000000000000000000815260206004820152600b60248201527f6e6f7420616c6c6f77656400000000000000000000000000000000000000000060448201526064016102e7565b600254610100900460ff1615610c64576040517f08c379a000000000000000000000000000000000000000000000000000000000815260206004820152600660248201527f706175736564000000000000000000000000000000000000000000000000000060448201526064016102e7565b60038054906000610c7483610f65565b91905055507f2c491798f52268e4ba67d63a855985eb2c1c547e780e169f82a3f7cc0cf4b712600260169054906101000a900461ffff1689338a8a8a8a8a8a600354604051610ccc9a9998979695949392919061100d565b60405180910390a15050505050505050565b60005473ffffffffffffffffffffffffffffffffffffffff163314610d5f576040517f08c379a000000000000000000000000000000000000000000000000000000000815260206004820152600a60248201527f6f6e6c792061646d696e0000000000000000000000000000000000000000000060448201526064016102e7565b73ffffffffffffffffffffffffffffffffffffffff16600090815260016020819052604090912080547fffffffffffffffffffffffffffffffffffffffffffffffffffffffffffffff00169091179055565b803573ffffffffffffffffffffffffffffffffffffffff81168114610dd557600080fd5b919050565b600060208284031215610dec57600080fd5b610df582610db1565b9392505050565b803561ffff81168114610dd557600080fd5b60008060408385031215610e2157600080fd5b610e2a83610db1565b9150610e3860208401610dfc565b90509250929050565b60008083601f840112610e5357600080fd5b50813567ffffffffffffffff811115610e6b57600080fd5b602083019150836020828501011115610e8357600080fd5b9250929050565b60008060008060008060006080888a031215610ea557600080fd5b610eae88610dfc565b9650602088013567ffffffffffffffff80821115610ecb57600080fd5b610ed78b838c01610e41565b909850965060408a0135915080821115610ef057600080fd5b610efc8b838c01610e41565b909650945060608a0135915080821115610f1557600080fd5b818a0191508a601f830112610f2957600080fd5b813581811115610f3857600080fd5b8b60208260051b8501011115610f4d57600080fd5b60208301945080935050505092959891949750929550565b60007fffffffffffffffffffffffffffffffffffffffffffffffffffffffffffffffff8203610fbd577f4e487b7100000000000000000000000000000000000000000000000000000000600052601160045260246000fd5b5060010190565b8183528181602085013750600060208284010152600060207fffffffffffffffffffffffffffffffffffffffffffffffffffffffffffffffe0601f840116840101905092915050565b600061ffff808d1683526020818d168185015273ffffffffffffffffffffffffffffffffffffffff8c16604085015260e0606085015261105160e085018b8d610fc4565b9150838203608085015261106682898b610fc4565b84810360a08601528681529150808201600587901b830182018860005b8981101561112e577fffffffffffffffffffffffffffffffffffffffffffffffffffffffffffffffe086840301845281357fffffffffffffffffffffffffffffffffffffffffffffffffffffffffffffffe18c36030181126110e457600080fd5b8b01858101903567ffffffffffffffff81111561110057600080fd5b80360382131561110f57600080fd5b61111a858284610fc4565b958701959450505090840190600101611083565b5050809450505050508260c08301529b9a505050505050505050505056fea26469706673582212205b75e4cac43398969fff6e32cfd14ffcc50cf6e95674eb0cdafd8a6e8e8efad264736f6c63430008120033",
  "devdoc": {
    "kind": "dev",
    "methods": {},
    "version": 1
  },
  "userdoc": {
    "kind": "user",
    "methods": {},
    "version": 1
  },
  "storageLayout": {
    "storage": [
      {
        "astId": 27,
        "contract": "contracts/WavesCaller.sol:WavesCaller",
        "label": "admin",
        "offset": 0,
        "slot": "0",
        "type": "t_address"
      },
      {
        "astId": 78,
        "contract": "contracts/WavesCaller.sol:WavesCaller",
        "label": "allowance",
        "offset": 0,
        "slot": "1",
        "type": "t_mapping(t_address,t_bool)"
      },
      {
        "astId": 448,
        "contract": "contracts/WavesCaller.sol:WavesCaller",
        "label": "isInited",
        "offset": 0,
        "slot": "2",
        "type": "t_bool"
      },
      {
        "astId": 1274,
        "contract": "contracts/WavesCaller.sol:WavesCaller",
        "label": "isPaused",
        "offset": 1,
        "slot": "2",
        "type": "t_bool"
      },
      {
        "astId": 1276,
        "contract": "contracts/WavesCaller.sol:WavesCaller",
        "label": "pauser",
        "offset": 2,
        "slot": "2",
        "type": "t_address"
      },
      {
        "astId": 12,
        "contract": "contracts/WavesCaller.sol:WavesCaller",
        "label": "chainId",
        "offset": 22,
        "slot": "2",
        "type": "t_uint16"
      },
      {
        "astId": 14,
        "contract": "contracts/WavesCaller.sol:WavesCaller",
        "label": "nonce",
        "offset": 0,
        "slot": "3",
        "type": "t_uint256"
      }
    ],
    "types": {
      "t_address": {
        "encoding": "inplace",
        "label": "address",
        "numberOfBytes": "20"
      },
      "t_bool": {
        "encoding": "inplace",
        "label": "bool",
        "numberOfBytes": "1"
      },
      "t_mapping(t_address,t_bool)": {
        "encoding": "mapping",
        "key": "t_address",
        "label": "mapping(address => bool)",
        "numberOfBytes": "32",
        "value": "t_bool"
      },
      "t_uint16": {
        "encoding": "inplace",
        "label": "uint16",
        "numberOfBytes": "2"
      },
      "t_uint256": {
        "encoding": "inplace",
        "label": "uint256",
        "numberOfBytes": "32"
      }
    }
  }
}